:020000000328D3
:100006003F3083120313A2000630A3005B30A40026
:100016004F30A5006630A6006D30A7007C30A800E2
:100026000730A9007F30AA006F30AB00AC01AD01EC
:10003600FF30831688008601831286018801081C1A
:1000460042280430FB000C30FC003330FD00FD0B71
:100056002A28FC0B2A28FB0B2A2800000000081C73
:10006600422880302D06F00080307002031D3D28A6
:1000760009302C0203184228AC0A0319AD0A881C61
:1000860063280430FB000C30FC003330FD00FD0B10
:100096004A28FC0B4A28FB0B4A2800000000881C53
:1000A60063288030F00080302D067002031D5D2825
:1000B6002C08003C031863280130AC02031CAD0376
:0E00C6002C08223E84000008860022286928AB
:02400E004A2F37
:00000001FF
