:020000000328D3
:1000060083120313A201A30183168601FF30880021
:1000160083128601081C21280330FB000830FC00EF
:100026007730FD00FD0B1528FC0B1528FB0B15285A
:10003600081C21280130A2000030A300881D3328A7
:100046000330FB000830FC007730FD00FD0B29284B
:10005600FC0B2928FB0B2928881D3328A201A301A4
:10006600081F47280330FB000830FC007730FD00EE
:10007600FD0B3B28FC0B3B28FB0B3B28081F4728A6
:100086000230A2000030A30000302306031D4D28D5
:1000960001302206031D5228061486105F28003000
:1000A6002306031D582802302206031D5D2806106C
:0C00B60086145F28061086100D286028B4
:02400E004A2F37
:00000001FF
