:020000000328D3
:100006003F3083120313A2000030A3000630A40081
:100016000030A5005B30A6000030A7004F30A800D6
:100026000030A9006630AA000030AB006D30AC008D
:100036000030AD007C30AE000030AF000730B000BD
:100046000030B1007F30B2000030B3006F30B40032
:100056000030B5008316870183128701F301F4018E
:1000660080307406F00080307002031D3C280A3090
:10007600730203185C287308F0007408F100F00D91
:10008600F10D70107008223E8400000887000B30C6
:10009600FB002630FC005D30FD00FD0B5028FC0BFC
:1000A6005028FB0B502800000000F30A0319F40A3D
:0600B600332831285D280B
:02400E004A2F37
:00000001FF
