:02000000B72D1A
:06000600000000000800EC
:10000C000F3083120313FC004730FD00FD0B0C284E
:0A001C00FC0B0C2800000000080097
:0E002600213083120313FD00FD0B1728080084
:100034007B15FB1F24280130F300F201F101F001CC
:08004400FA0DF20CFF30080078
:10004C00FB14FB1F3028FF30F300F200F100F0002E
:08005C00FA0DF20CFF30080060
:0E006400F201F101F001F801F3010030080093
:08007200FA1FF2130030080030
:10007A0083120313DA1B43288612442886165A1B56
:10008A004828061249280616DA1A4D2886114E28DB
:10009A0086155A1A52280611532806154418572845
:1000AA00061458280610861403208610DA195F28C9
:1000BA008612602886165A196428061265280616BA
:1000CA00DA18692886116A2886155A186E280611C0
:1000DA006F28061544187328061474280610861407
:1000EA0003208610441C7B2806207C281320080045
:1000FA0083120313FA017308031D7A147708031D88
:10010A00FA147A080319C928033A031994287A18A1
:10011A009128F61FC728C528F21FC528C7287208C4
:10012A008039FA00F21376088039F6137A06031931
:10013A00A2287A080319C528C72877087302031961
:10014A00A928031CBD28C128760872020319B02801
:10015A00031CBD28C128750871020319B728031C9E
:10016A00BD28C128740870020319C9280318C128B8
:10017A00FA080319C728C528FA080319C528C72881
:10018A0003140800031008000314031508000800EC
:06019A00FB15FF30080018
:1001A00083120313FB017308031D77080319272922
:1001B00072087606FA007708F3077E30031CE428FD
:1001C000F30203182A29E728F302031C2D297208D9
:1001D000F8007108FC007008FD00F817F61703100E
:1001E000F201F101F0011830A0007D1C0129740812
:1001F000F00775080318750FF10776080318760FD6
:10020000F207F20CF10CF00CF80CFC0CFD0C0310D6
:10021000A00BF528F21B1129F80DF00DF10DF20DD0
:10022000F3037B1B701C2329F81F2329F00A0319F1
:10023000F10A0319F20A031D2329F20CF10CF00C48
:10024000F30A03192A29FA1FF21300302F2901306B
:1002500032202F29023026202F2904301A200000B6
:02026000080094
:100262000E3083120313FD00FD0B35290000080038
:1002720083120313FD01F801700803190034740698
:10028200FA00FA1BFD09FB01F41F4929F409F40ADB
:10029200F01F4D29F009F00A70087404FA00FA1BE5
:1002A20071297408F802F00D700DF80D7408F80742
:1002B200F00D0630FC00700DF80D74087018F8028D
:1002C200701CF807F00DFC0B5C29701CF8077B18FA
:1002D2007F29FD1F0034F009F00AF809F80A0034FA
:1002E200F41F7C29F01B79297008F800F0016A29B3
:1002F200F001F00A0034F009FB0A5229F80A7408E6
:100302007802031D6A29F801F00AF01F6A29FF34F6
:020312000800E1
:100314008312031344105808DA003D2044140800E3
:10032400831203135808F2007208F100F20A590804
:10033400F000D90A700884000008F00071088400F5
:10034400700880007108840000080319AA299629FE
:060354005808F00008004B
:10035A00A0017208031DC2297108F2007008F10099
:10036A00F001A0157208031DC2297108F200F101FB
:10037A00A011201672080319D0292008F302031DC0
:10038A00031CD4290310F21BD829F00DF10DF20D2C
:10039A00F30BC829D4290130FC003220DB290230B2
:0E03AA00FC001A20DB290430FC00392008007A
:0E03B8008312031346088A00450882000800DD
:1003C60083120313D601D7014B08D2004C08D30081
:1003D6004D08D4004E08D5005508FF3A031DFD29E7
:1003E6005408FF3A031DFD295308FF3A031DFD2952
:1003F6005208FF3A031D072A4F08D8002330D900B8
:1004060092210330F000E02B0130D000D41F162AD1
:1004160080305406F0007008D400D00A4F088400DB
:100426002D308000CF0A0030F0005506031D252A26
:1004360070085406031D252A70085306031D252A35
:100446005208003A031D2E2A4F08D8002130D90041
:100456009221F001E02B5508FF3A031D3C2A54086F
:10046600003A031D3C2A5308003A031D3C2A520851
:10047600003A031D462A4F08D8002730D90092219A
:100486005008F000E02B0030F4000030F50000309A
:10049600F6007F30F7005208F0005308F1005408C8
:1004A600F2005508F3007D20013003180030F000FB
:1004B60070080319792A5208F0005308F10054080D
:1004C600F2005508F3000030F4000030F50020304B
:1004D600F6008230F700D0207008D2007108D300F1
:1004E6007208D4007308D500D703462A0030F400FA
:1004F6000030F5002030F6008230F7005208F00098
:100506005308F1005408F2005508F3007D2001302D
:10051600031C0030F00070080319AC2A5208F000E2
:100526005308F1005408F2005508F300CD30F400EA
:10053600CC30F5004C30F6007B30F700D020700848
:10054600D2007108D3007208D4007308D500D70A08
:10055600792AFF305205F800FF305305F9007F3045
:100566005405FA0000305505FB007808F4007908B8
:10057600F5007A08F6007B08F700F40DF50DF60D88
:10058600F70D741000305205F00000305305F100ED
:1005960000305405F200FF305505F3007008D20014
:1005A6007108D3007208D4007308D5007408520489
:1005B600F00075085304F10076085404F200770839
:1005C6005504F3007008D2007108D3007208D400F5
:1005D6007308D5007F305502F0007008D100013055
:1005E600D5007008F4005208F0005308F1005408D2
:1005F600F2005508F30074080319082BF00DF10DED
:10060600F20DF30D7010FF3EFF2A7008D20071083C
:10061600D3007208D4007308D5005508303EF000A8
:100626004F08840070088000CF0A80305706F0001B
:100636008030013A7002031C292B8030063AF00004
:10064600803057067002031C292B302B4F0884007C
:100656002E308000CF0A0130D6000630D100510876
:10066600003A03198E2BD5015208F0005308F10009
:100676005408F2005508F300F00DF10DF20DF30DDC
:100686007010F00DF10DF20DF30D70105208F00719
:1006960053080318530FF10754080318540FF207B1
:1006A60055080318550FF3077008D2007108D300D8
:1006B6007208D4007308D5005208F0005308F10000
:1006C6005408F2005508F300F00DF10DF20DF30D8C
:1006D60070107008D2007108D3007208D400730835
:1006E600D5005508303EF0004F08840070088000A1
:1006F600CF0A5608003A031D8C2BD7035708003A39
:10070600031D8C2B4F0884002E308000CF0A013049
:10071600D600D103322BFF304F0784000008303A51
:10072600031D972BCF038E2BFF304F078400000845
:100736002E3A031D9F2BCF035708003A0319DC2BD3
:100746004F08840065308000CF0A80305706F000DD
:100756008030003A70020318B82B4F0884002D3001
:100766008000CF0A5708003CD7005708D1008030D8
:10077600093AF0008030570670020318CE2B0A3073
:10078600F4005108F00039213030F0074F0884009A
:1007960070088000CF0A0A30F4005108F0003921B1
:1007A6007808F0003030F0074F08840070088000A9
:0C07B600CF0A4F0884008001F001080009
:1007C200F32B803083120313CB00062CC030CB00F6
:1007D200062C9430CB00062CD430CB00062C803073
:1007E200CB00062C831203134B08013A0319E22BA8
:1007F2004B08023A0319E72B4B08033A0319EA2B79
:100802004B08043A0319ED2BF02B4C03F0004B0874
:10081200F0077008CB0044147008DA003D20441041
:0A0822004D08DA003D2044140800E0
:10082C00282C803083120313CB003B2CC030CB0020
:10083C003B2C9430CB003B2CD430CB003B2C803069
:10084C00CB003B2C831203134B08013A0319172CD2
:10085C004B08023A03191C2C4B08033A03191F2CA2
:10086C004B08043A0319222C252C4C03F0004B089E
:10087C00F0077008CB007008DA003D204410CE0160
:10088C004E084D07840000080319542C4E084D07E0
:10089C0084000008D8008A21CE0A462C4414080093
:1008AC00831203137408003A031D712C7508003A67
:1008BC00031D712C7608003A031D712C7708003A41
:1008CC00031D712CFF30F000FF30F1007F30F2007F
:1008DC00FF30F3000C2D8312031377080319002D3E
:1008EC0073080319032D720876068039FA00F21783
:1008FC00F617A0017208F8007108FC007008FD00E2
:10090C007408FD027508031C750FFC027608031CA5
:10091C00760FF802F801FC01FD01031C9C2C03105E
:10092C00F20CF10CF00CF80C0130A0007708F3027B
:10093C00031CA62C7E302007F3070318062DAB2CC6
:10094C007E302007F307031C092D1830FA07FD0D24
:10095C00FC0DF80DF00DF10DF20DA00D7408F00268
:10096C007508031C750FF1027608031C760FF20252
:10097C00760DA004201CC42C7D14CF2C7408F00719
:10098C0075080318750FF10776080318760AF20735
:10099C007D10FA031F307A05031DAD2C7B1B7D1CCB
:1009AC00F62C0310F00DF10DF20DA00D7408F002F1
:1009BC007508031C750FF1027608031C760FF20202
:1009CC00760D20040139FD070318FC0A0319F80AF7
:1009DC00031DF62CF80CFC0CFD0CF30A0319062D68
:1009EC00FA1FF8137808F2007C08F1007D08F0007B
:1009FC0000300B2D0130CD200B2D023032200B2D71
:0E0A0C00043026200B2D08301A2000000800B0
:100A1A0083120313CC014C084B0784000008031906
:100A2A001E2D4C084B0784000008D8008A21CC0AE6
:040A3A00102D080073
:100A3E00DC218A110A128000840AC50A0319C60A2B
:080A4E00F003031D1F2D080039
:100A560083160313861006100611861106128612D7
:100A660083128610061086120612861106110620BB
:100A760006200620861506158614032086100620F5
:100A8600861403208610062086140320861006206E
:100A9600061186140320861006208614032086106D
:100AA60086118616861403208610062086120615E1
:100AB600861403208610061186140320861006204D
:100AC6008614032086100615861403208610062039
:100AD6000611861403208610861606168615061538
:0C0AE6008614032086100620441408002B
:100AF200831203137008F8007108F000F101F2018B
:100B0200F301FB01FC019630F300FA017008F100D9
:0C0B12007808F000F801F201AD210800A5
:100B1E00831203139F01C0309F042B09F00070084D
:100B2E0083169F051F179F1783124B08F000F00DB9
:100B3E007010F00D7010F00D701070089F041F14DF
:100B4E0031211F151F1DAD2D0000A92D1F101E08D0
:100B5E00F100F00183161E08F0040030F1040800C5
:100B6E003026831603138601FF30850080309F00E8
:100B7E002B250130DA003D200C30DA003D20CB0170
:100B8E008F257925F630F4002830F5001C30F6005C
:100B9E008130F700D0200030F4000030F500203016
:100BAE00F6008230F70056247008C7007108C8009E
:100BBE007208C9007308CA000130CB000130CC00A6
:100BCE003C30CD0016244708CB004808CC0049081D
:100BDE00CD004A08CE002C30CF00E3212C30CB00C4
:100BEE000D250130CB001030CC00DF30CD00E123DD
:100BFE000230CB000130CC004330CD00E123C62DB6
:020C0E00072EAF
:100C600021308400233083120313F0000D30C500BF
:080C70000630C6001F25080034
:040C1A00303400343E
:080C1E004E3461344E34003401
:080C260049344E344634003419
:020C2E000F3481
:100C30000034003400340034003400340034003414
:100C40000034003400340034003400340034003404
:100C5000543465346D34703420343D3420340034E1
:02400E004A2F37
:00000001FF
