:02000000502886
:10000600831203134C088700061486141A30FC006A
:10001600F830FD00FD0B0D28FC0B0D2800008610A6
:020026000800D0
:0E0028008312031348088A004708820008006C
:1000360083120313CA01CB01CA01CB014A0849073F
:1000460084000008003A031932284A084907840048
:100056000008CC000320CA0A0319CB0A212808008D
:1000660014208A110A128000840AC70A0319C80AD2
:08007600F003031D332808000C
:10007E008312031349088700061086141A30FC00F9
:10008E00F830FD00FD0B4928FC0B492800008610B6
:02009E00080058
:1000A000A820831603138601870138308312C90004
:1000B0003F200E30C9003F200130C9003F20803072
:1000C000C9003F204130CC000320C030C9003F2090
:1000D0003830C9001B200130C9003F208030C900E2
:1000E0003F202030C9001B20C030C9003F202B30EA
:0800F000C9001B205C287B28DD
:1001500020308400273083120313F0008130C70061
:080160000030C8003320080044
:100102004D34793420344E3461346D3465342034C6
:060112006934733400346F
:100118005434613468346D34693464342034483478
:0A0128006134733461346E34003426
:10013200573465346C3463346F346D346534203431
:0E01420074346F342034503449344334003464
:02400E004A2F37
:00000001FF
