:02000000B72D1A
:06000600000000000800EC
:10000C000F3083120313FC004730FD00FD0B0C284E
:0A001C00FC0B0C2800000000080097
:0E002600213083120313FD00FD0B1728080084
:100034007B15FB1F24280130F300F201F101F001CC
:08004400FA0DF20CFF30080078
:10004C00FB14FB1F3028FF30F300F200F100F0002E
:08005C00FA0DF20CFF30080060
:0E006400F201F101F001F801F3010030080093
:08007200FA1FF2130030080030
:10007A0083120313DD1B43288612442886165D1B50
:10008A004828061249280616DD1A4D2886114E28D8
:10009A0086155D1A5228061153280615471857283F
:1000AA00061458280610861403208610DD195F28C6
:1000BA008612602886165D196428061265280616B7
:1000CA00DD18692886116A2886155D186E280611BA
:1000DA006F28061547187328061474280610861404
:1000EA0003208610471C7B2806207C281320080042
:1000FA0083120313FA017308031D7A147708031D88
:10010A00FA147A080319C928033A031994287A18A1
:10011A009128F61FC728C528F21FC528C7287208C4
:10012A008039FA00F21376088039F6137A06031931
:10013A00A2287A080319C528C72877087302031961
:10014A00A928031CBD28C128760872020319B02801
:10015A00031CBD28C128750871020319B728031C9E
:10016A00BD28C128740870020319C9280318C128B8
:10017A00FA080319C728C528FA080319C528C72881
:10018A0003140800031008000314031508000800EC
:06019A00FB15FF30080018
:1001A00083120313FB017308031D77080319272922
:1001B00072087606FA007708F3077E30031CE428FD
:1001C000F30203182A29E728F302031C2D297208D9
:1001D000F8007108FC007008FD00F817F61703100E
:1001E000F201F101F0011830A0007D1C0129740812
:1001F000F00775080318750FF10776080318760FD6
:10020000F207F20CF10CF00CF80CFC0CFD0C0310D6
:10021000A00BF528F21B1129F80DF00DF10DF20DD0
:10022000F3037B1B701C2329F81F2329F00A0319F1
:10023000F10A0319F20A031D2329F20CF10CF00C48
:10024000F30A03192A29FA1FF21300302F2901306B
:1002500032202F29023026202F2904301A200000B6
:02026000080094
:100262000E3083120313FD00FD0B35290000080038
:1002720083120313FD01F801700803190034740698
:10028200FA00FA1BFD09FB01F41F4929F409F40ADB
:10029200F01F4D29F009F00A70087404FA00FA1BE5
:1002A20071297408F802F00D700DF80D7408F80742
:1002B200F00D0630FC00700DF80D74087018F8028D
:1002C200701CF807F00DFC0B5C29701CF8077B18FA
:1002D2007F29FD1F0034F009F00AF809F80A0034FA
:1002E200F41F7C29F01B79297008F800F0016A29B3
:1002F200F001F00A0034F009FB0A5229F80A7408E6
:100302007802031D6A29F801F00AF01F6A29FF34F6
:020312000800E1
:100314008312031347105B08DD003D2047140800D7
:10032400831203135B08F2007208F100F20A5C08FE
:10033400F000DC0A700884000008F00071088400F2
:10034400700880007108840000080319AA299629FE
:060354005B08F000080048
:10035A00A0017208031DC2297108F2007008F10099
:10036A00F001A0157208031DC2297108F200F101FB
:10037A00A011201672080319D0292008F302031DC0
:10038A00031CD4290310F21BD829F00DF10DF20D2C
:10039A00F30BC829D4290130FC003220DB290230B2
:0E03AA00FC001A20DB290430FC00392008007A
:0E03B8008312031349088A00480882000800D7
:1003C60083120313D901DA014E08D5004F08D6006F
:1003D6005008D7005108D8005808FF3A031DFD29D8
:1003E6005708FF3A031DFD295608FF3A031DFD294C
:1003F6005508FF3A031D072A5208DB002130DC00AE
:1004060092210330F000E02B0130D300D71F162ACB
:1004160080305706F0007008D700D30A52088400CF
:100426002D308000D20A0030F0005806031D252A20
:1004360070085706031D252A70085606031D252A2F
:100446005508003A031D2E2A5208DB002630DC0030
:100456009221F001E02B5808FF3A031D3C2A570869
:10046600003A031D3C2A5608003A031D3C2A55084B
:10047600003A031D462A5208DB002830DC00922190
:100486005308F000E02B0030F4000030F500003097
:10049600F6007F30F7005508F0005608F1005708BF
:1004A600F2005808F3007D20013003180030F000F8
:1004B60070080319792A5508F0005608F100570804
:1004C600F2005808F3000030F4000030F500203048
:1004D600F6008230F700D0207008D5007108D600EB
:1004E6007208D7007308D800DA03462A0030F400F1
:1004F6000030F5002030F6008230F7005508F00095
:100506005608F1005708F2005808F3007D20013024
:10051600031C0030F00070080319AC2A5508F000DF
:100526005608F1005708F2005808F300CD30F400E1
:10053600CC30F5004C30F6007B30F700D020700848
:10054600D5007108D6007208D7007308D800DA0AF9
:10055600792AFF305505F800FF305605F9007F303F
:100566005705FA0000305805FB007808F4007908B2
:10057600F5007A08F6007B08F700F40DF50DF60D88
:10058600F70D741000305505F00000305605F100E7
:1005960000305705F200FF305805F3007008D5000B
:1005A6007108D6007208D7007308D800740855047D
:1005B600F00075085604F10076085704F200770833
:1005C6005804F3007008D5007108D6007208D700E9
:1005D6007308D8007F305802F0007008D40001304C
:1005E600D8007008F4005508F0005608F1005708C6
:1005F600F2005808F30074080319082BF00DF10DEA
:10060600F20DF30D7010FF3EFF2A7008D500710839
:10061600D6007208D7007308D8005808303EF0009C
:100626005208840070088000D20A80305A06F00012
:100636008030013A7002031C292B8030063AF00004
:1006460080305A067002031C292B302B5208840076
:100656002E308000D20A0130D9000630D40054086A
:10066600003A03198E2BD8015508F0005608F10000
:100676005708F2005808F300F00DF10DF20DF30DD6
:100686007010F00DF10DF20DF30D70105508F00716
:1006960056080318560FF10757080318570FF207A5
:1006A60058080318580FF3077008D5007108D600CC
:1006B6007208D7007308D8005508F0005608F100F4
:1006C6005708F2005808F300F00DF10DF20DF30D86
:1006D60070107008D5007108D6007208D70073082C
:1006E600D8005808303EF000520884007008800098
:1006F600D20A5908003A031D8C2BDA035A08003A2D
:10070600031D8C2B520884002E308000D20A013043
:10071600D900D403322BFF30520784000008303A48
:10072600031D972BD2038E2BFF305207840000083F
:100736002E3A031D9F2BD2035A08003A0319DC2BCD
:100746005208840065308000D20A80305A06F000D4
:100756008030003A70020318B82B520884002D30FE
:100766008000D20A5A08003CDA005A08D4008030C9
:10077600093AF00080305A0670020318CE2B0A3070
:10078600F4005408F00039213030F0075208840094
:1007960070088000D20A0A30F4005408F0003921AB
:1007A6007808F0003030F0075208840070088000A6
:0C07B600D20A520884008001F001080003
:1007C200F32B803083120313CE00062CC030CE00F0
:1007D200062C9430CE00062CD430CE00062C80306D
:1007E200CE00062C831203134E08013A0319E22BA2
:1007F2004E08023A0319E72B4E08033A0319EA2B73
:100802004E08043A0319ED2BF02B4F03F0004E086B
:10081200F0077008CE0047147008DD003D20471035
:0A0822005008DD003D2047140800D7
:10082C00282C803083120313CE003B2CC030CE001A
:10083C003B2C9430CE003B2CD430CE003B2C803063
:10084C00CE003B2C831203134E08013A0319172CCC
:10085C004E08023A03191C2C4E08033A03191F2C9C
:10086C004E08043A0319222C252C4F03F0004E0895
:10087C00F0077008CE007008DD003D204710D10154
:10088C0051085007840000080319542C51085007D4
:10089C0084000008DB008A21D10A462C471408008A
:1008AC00831203137408003A031D712C7508003A67
:1008BC00031D712C7608003A031D712C7708003A41
:1008CC00031D712CFF30F000FF30F1007F30F2007F
:1008DC00FF30F3000C2D8312031377080319002D3E
:1008EC0073080319032D720876068039FA00F21783
:1008FC00F617A0017208F8007108FC007008FD00E2
:10090C007408FD027508031C750FFC027608031CA5
:10091C00760FF802F801FC01FD01031C9C2C03105E
:10092C00F20CF10CF00CF80C0130A0007708F3027B
:10093C00031CA62C7E302007F3070318062DAB2CC6
:10094C007E302007F307031C092D1830FA07FD0D24
:10095C00FC0DF80DF00DF10DF20DA00D7408F00268
:10096C007508031C750FF1027608031C760FF20252
:10097C00760DA004201CC42C7D14CF2C7408F00719
:10098C0075080318750FF10776080318760AF20735
:10099C007D10FA031F307A05031DAD2C7B1B7D1CCB
:1009AC00F62C0310F00DF10DF20DA00D7408F002F1
:1009BC007508031C750FF1027608031C760FF20202
:1009CC00760D20040139FD070318FC0A0319F80AF7
:1009DC00031DF62CF80CFC0CFD0CF30A0319062D68
:1009EC00FA1FF8137808F2007C08F1007D08F0007B
:1009FC0000300B2D0130CD200B2D023032200B2D71
:0E0A0C00043026200B2D08301A2000000800B0
:100A1A0083120313CF014F084E07840000080319FD
:100A2A001E2D4F084E0784000008DB008A21CF0ADA
:040A3A00102D080073
:100A3E00DC218A110A128000840AC80A0319C90A25
:080A4E00F003031D1F2D080039
:100A560083160313861006100611861106128612D7
:100A660083128610061086120612861106110620BB
:100A760006200620861506158614032086100620F5
:100A8600861403208610062086140320861006206E
:100A9600061186140320861006208614032086106D
:100AA60086118616861403208610062086120615E1
:100AB600861403208610061186140320861006204D
:100AC6008614032086100615861403208610062039
:100AD6000611861403208610861606168615061538
:0C0AE60086140320861006204714080028
:100AF200831203137008F8007108F000F101F2018B
:100B0200F301FB01FC019630F300FA017008F100D9
:0C0B12007808F000F801F201AD210800A5
:100B1E00831203139F01C0309F042509F000700853
:100B2E0083169F051F179F1783124E08F000F00DB6
:100B3E007010F00D7010F00D701070089F041F14DF
:100B4E0031211F151F1DAD2D0000A92D1F101E08D0
:100B5E00F100F00183161E08F0040030F1040800C5
:100B6E003026831603138601FF30850080309F00E8
:100B7E002B250130DD003D200C30DD003D20CE0167
:100B8E008F257925F630F4002830F5001C30F6005C
:100B9E008130F700D0200030F4000030F500203016
:100BAE00F6008230F70056247008CA007108CB0098
:100BBE007208CC007308CD000130CE000130CF009A
:100BCE002C30D00016244A08CE004B08CF004C081B
:100BDE00D0004D08D1003730D200E3213730CE009F
:100BEE000D250130CE001030CF00DF30D000E123D4
:0A0BFE003430CE000D25C62D032E65
:100C600021308400263083120313F0000930C800BD
:080C70000630C9001F25080031
:080C12004E3461344E3400340D
:020C1A000F3495
:040C1C00303400343C
:080C200049344E34463400341F
:100C2800543465346D34703420343D342034003409
:060C3800203443340034B7
:100C3E000034003400340034003400340034003406
:100C4E0000340034003400340034003400340034F6
:02400E004A2F37
:00000001FF
