:020000000328D3
:1000060083160313860183128601013086001A3097
:10001600FB005E30FC006E30FD00FD0B1028FC0B73
:100026001028FB0B10280000023086001A30FB0057
:100036005E30FC006E30FD00FD0B1F28FC0B1F28F8
:10004600FB0B1F280000043086001A30FB005E30D0
:10005600FC006E30FD00FD0B2E28FC0B2E28FB0B42
:100066002E280000083086001A30FB005E30FC00A7
:100076006E30FD00FD0B3D28FC0B3D28FB0B3D289B
:100086000000103086001A30FB005E30FC006E3037
:10009600FD00FD0B4C28FC0B4C28FB0B4C280000EC
:1000A600203086001A30FB005E30FC006E30FD000A
:1000B600FD0B5B28FC0B5B28FB0B5B28000040302C
:1000C60086001A30FB005E30FC006E30FD00FD0B32
:1000D6006A28FC0B6A28FB0B6A2800008030860021
:1000E6001A30FB005E30FC006E30FD00FD0B7928F7
:1000F600FC0B7928FB0B79280000FF308600333093
:10010600FB00BB30FC00DF30FD00FD0B8828FC0B3C
:100116008828FB0B88280000000086013330FB008E
:10012600BB30FC00DF30FD00FD0B9728FC0B972849
:0C013600FB0B9728000000000828A02800
:02400E004A2F37
:00000001FF
