:020000009B283B
:10000600831203131A08F100981C0B2818121816ED
:060016007108F000080073
:10001C00831603139818142800000E288312310835
:04002C00990008002F
:0E0030000030831203138C1A0130F000080018
:0E003E00831203132A088A0029088200080092
:10004C001F208A110A128000840AA90A0319AA0A1D
:08005C00F003031D2628080033
:1000640083120313AF01B0012D08031971282D0861
:10007400FF3A03193E28AD0318207008003A031D07
:1000840044283E2803207008AE002F082B07840064
:1000940070088000AF0A30082C07840000082E0680
:1000A400031D5628B00A5E28B0012C0884000008FD
:1000B4002E06031D5E28B00A30082C0784000008B1
:1000C400003A031D702830082F02F000F101031CD0
:1000D400F10370082B0784008001742836282B084C
:0600E40084008001080009
:1000EA0083120313AD012B0884000008AC002C080E
:1000FA00003A03198A282C08B1000E20AD0A2D08EF
:0C010A002B0784000008AC007C280800D3
:100116008316031398169030831298008316871758
:10012600071383128C1E9A281A08F00094280800D8
:10013600683083120313A0006530A1006C30A20062
:100146006C30A3006F30A400A5014F30A6004B30E1
:10015600A700A80167308316990018158B20023076
:10016600FB000430FC00BA30FD00FD0BB828FC0B88
:10017600B828FB0BB828000018207008013A031DA8
:10018600CE282030AB002630AC000A30AD0032203D
:0A0196002030AB007520BF28CF28F1
:02400E004A2F37
:00000001FF
