:02000000AB282B
:10000600710DF80DF90D7408F8027508031C750FCB
:10001600F902F00DF10D0F30FC00710DF80DF90D20
:100026007408701C1C28F8027508031C750FF90269
:100036002128F80775080318750FF907F00DF10D5B
:10004600FC0B102870182D287408F807750803187B
:08005600750FF9070000080016
:0E005E00831203132B088A002A088200080070
:10006C002F208A110A128000840AAA0A0319AB0AEB
:08007C00F003031D3628080003
:10008400831203137408003A031D51287508003ABB
:10009400031D5128FF30F0007F30F100AA2883129D
:1000A4000313FD01F901F801710870040319003408
:1000B40071087506FA00FA1BFD09FB01F51F672894
:1000C400F409F509F40A0319F50AF11F6E28F00979
:1000D400F109F00A0319F10A71087504FA00FA1B10
:1000E400832803207B189628FD1F0034F009F109AA
:1000F400F00A0319F10AF809F909F80A0319F90AC7
:100104000034F51F9228F11B8E287108F90070083D
:10011400F800F101F0017628F101F001F00A003451
:10012400F109F009FB0A7328F80A0319F90A74089B
:100134007802031D762875087902031D7628F901D3
:10014400F801F00A0319F10AF11F76280000FF34C0
:020154000800A1
:10015600C03083120313A000F930A100A430A2001E
:10016600B030A3009930A4009230A5008230A600DA
:10017600F830A7008030A8009030A900B001B10186
:10018600B201B301831686018701831286018701B6
:10019600B001B10180303106F00080307002031DDD
:1001A600D6281F30300203182D290A30F4000030FB
:1001B600F5003008F0003108F10042207008AC006C
:1001C6007108AD000A30F4000030F5003008F00088
:1001D6003108F10042207808F0007908F100700833
:1001E600AE007108AF00B201B30180303306F000F3
:1001F60080307002031D01291430320203182929A8
:1002060087152C08203E8400000886003430FC0048
:10021600F130FD00FD0B0D29FC0B0D29000000003F
:10022600871107172E08203E840000088600343008
:10023600FC00F130FD00FD0B1E29FC0B1E29000001
:1002460000000713B20A0319B30AF828B00A031903
:08025600B10ACD28CB282E29A6
:02400E004A2F37
:00000001FF
