:02000000FC2DD5
:0E000600213083120313FD00FD0B07280800B4
:100014000F3083120313FC004730FD00FD0B102842
:0A002400FC0B10280000000008008B
:06002E00000000000800C4
:1000340083120313E41B2028861221288616641BCE
:100044002528061226280616E41A2A2886112B28A3
:100054008615641A2F280611302806153E183428F0
:10006400061435280610861417208610E4193C2837
:1000740086123D288616641941280612422806165F
:10008400E418462886114728861564184B2806115B
:100094004C2806153E1850280614512806108614BC
:1000A400172086103E1C58280A20592803200800CF
:1000B4007B15FB1F64280130F300F201F101F0010C
:0800C400FA0DF20CFF300800F8
:0800CC00FA1FF21300300800D6
:0E00D400F201F101F001F801F3010030080023
:1000E200FB14FB1F7B28FF30F300F200F100F0004D
:0800F200FA0DF20CFF300800CA
:1000FA00A0017208031D92287108F2007008F1002D
:10010A00F001A0157208031D92287108F200F1018E
:10011A00A011201672080319A0282008F302031D53
:10012A00031CA4280310F21BA828F00DF10DF20DF0
:10013A00F30B9828A4280130FC006A20AB2802306F
:0E014A00FC005A20AB280430FC0066200800A0
:0E015800831203133D088A003C088200080051
:06016600FB15FF3008004C
:10016C000E3083120313FD00FD0BBA2800000800AB
:10017C0083120313FD01F80170080319003474068F
:10018C00FA00FA1BFD09FB01F41FCE28F409F40A4E
:10019C00F01FD228F009F00A70087404FA00FA1B58
:1001AC00F6287408F802F00D700DF80D7408F807B5
:1001BC00F00D0630FC00700DF80D74087018F80284
:1001CC00701CF807F00DFC0BE128701CF8077B186D
:1001DC000429FD1F0034F009F00AF809F80A00346C
:1001EC00F41F0129F01BFE287008F800F001EF281D
:1001FC00F001F00A0034F009FB0AD728F80A740859
:10020C007802031DEF28F801F00AF01FEF28FF34E5
:02021C000800D8
:10021E0083120313FB017308031D77080319662964
:10022E0072087606FA007708F3077E30031C23293E
:10023E00F302031869292629F302031C6C2972089C
:10024E00F8007108FC007008FD00F817F61703108F
:10025E00F201F101F0011830A0007D1C4029740854
:10026E00F00775080318750FF10776080318760F57
:10027E00F207F20CF10CF00CF80CFC0CFD0C031058
:10028E00A00B3429F21B5029F80DF00DF10DF20DD3
:10029E00F3037B1B701C6229F81F6229F00A0319F5
:1002AE00F10A0319F20A031D6229F20CF10CF00C8B
:1002BE00F30A03196929FA1FF21300306E2901306F
:1002CE006A206E29023071206E2904305A200000F7
:0202DE00080016
:1002E000831203136208F2007208F100F20A630835
:1002F000F000E30A700884000008F0007108840030
:100300007008800071088400000803198829742986
:060310006208F000080085
:10031600831203133E106208E4001A203E140800FC
:1003260083120313FA017308031D7A147708031D59
:10033600FA147A080319DF29033A0319AA297A1845
:10034600A729F61FDD29DB29F21FDB29DD29720823
:100356008039FA00F21376088039F6137A06031903
:10036600B8297A080319DB29DD29770873020319EE
:10037600BF29031CD329D729760872020319C62977
:10038600031CD329D729750871020319CD29031C2B
:10039600D329D729740870020319DF290318D7292E
:1003A600FA080319DD29DB29FA080319DB29DD29F7
:1003B60003140800031008000314031508000800BE
:1003C600F529803083120313D100082AC030D100EA
:1003D600082A9430D100082AD430D100082A803067
:1003E600D100082A831203135108013A0319E4299C
:1003F6005108023A0319E9295108033A0319EC296D
:100406005108043A0319EF29F2295203F000510862
:10041600F0077008D1007008E4001A203E10D401DD
:1004260054085307840000080319212A5408530767
:1004360084000008E2008B21D40A132A3E14080027
:1004460083120313DD01DE01DF01E001E101510842
:10045600D9005208DA005308DB005408DC005C08B7
:10046600FF3A031D402A5B08FF3A031D402A5A083B
:10047600FF3A031D402A5908FF3A031D4A2A550828
:10048600E2003330E30070210330F000962C013097
:10049600D700DB1F5A2A80305B06F0007008DB00AD
:1004A600D70ADE0A550884002D308000D50A0030B0
:1004B600F0005C06031D692A70085B06031D692AA5
:1004C60070085A06031D692A5908003A031D722A44
:1004D6005508E2003130E3007021F001962C5C08EB
:1004E600FF3A031D802A5B08003A031D802A5A083A
:1004F600003A031D802A5908003A031D8A2A550826
:10050600E2003730E30070215708F000962C0030E7
:10051600F4000030F5000030F6007F30F70059088F
:10052600F0005A08F1005B08F2005C08F300932122
:10053600013003180030F00070080319BD2A59086D
:10054600F0005A08F1005B08F2005C08F300003086
:10055600F4000030F5002030F6008230F7000F215D
:100566007008D9007108DA007208DB007308DC0035
:10057600E1038A2A0030F4000030F5002030F6004E
:100586008230F7005908F0005A08F1005B08F200C3
:100596005C08F30093210130031C0030F000700862
:1005A6000319F02A5908F0005A08F1005B08F20016
:1005B6005C08F300CD30F400CC30F5004C30F6008A
:1005C6007B30F7000F217008D9007108DA00720835
:1005D600DB007308DC00E10ABD2AFF305905F8008C
:1005E600FF305A05F9007F305B05FA0000305C05E4
:1005F600FB007808F4007908F5007A08F6007B0815
:10060600F700F40DF50DF60DF70D741000305905D1
:10061600F00000305A05F10000305B05F200FF30B3
:100626005C05F3007008D9007108DA007208DB0077
:100636007308DC0074085904F00075085A04F100C8
:1006460076085B04F20077085C04F3007008D900B2
:100656007108DA007208DB007308DC007F305C0288
:10066600F0007008D8000130DC007008F40059086A
:10067600F0005A08F1005B08F2005C08F300740809
:1006860003194C2BF00DF10DF20DF30D7010FF3E1A
:10069600432B7008D9007108DA007208DB00730872
:1006A600DC005C08303EF0005508840070088000CD
:1006B600D50ADE0A80306106F0008030013A700209
:1006C600031C6E2B8030063AF00080306106700203
:1006D600031C6E2B762B550884002E308000D50A1D
:1006E6000130DD00DE0A0630D8005808003A03194A
:1006F600D82BDC015908F0005A08F1005B08F2001B
:100706005C08F300F00DF10DF20DF30D7010F00D15
:10071600F10DF20DF30D70105908F0075A08031881
:100726005A0FF1075B0803185B0FF2075C08031802
:100736005C0FF3077008D9007108DA007208DB0055
:100746007308DC005908F0005A08F1005B08F20053
:100756005C08F300F00DF10DF20DF30D701070084A
:10076600D9007108DA007208DB007308DC005C0847
:10077600303EF0005508840070088000D50ADE0A75
:100786005D08003A031DD62BE1036108003A031DFC
:10079600D62B0130E000550884002E308000D50AA3
:1007A6000130DD00DE0AD803782B6008013A031D0C
:1007B600DD2BDE03FF305507840000082E3A031DAB
:1007C600E62BD503DE038030003AF0008030610668
:1007D60070020318F02B0130DF0080306106F00054
:1007E6008030003A70020318FA2B0230DF006108ED
:1007F600D8008030093AF000803061067002031C90
:10080600062CDF0A082C0230DF075F085E07F100BE
:10081600F2010318F20A80307206F000803070028E
:10082600031D172C560871020318202C5508840046
:1008360030308000D50ADE0A082C6108003A031918
:100846005D2C5508840065308000D50A803061062D
:10085600F0008030003A70020318392C55088400E5
:100866002D308000D50A6108003CE1006108D800FF
:100876008030093AF00080306106700203184F2C70
:100886000A30F4005808F000BE203030F007550852
:10089600840070088000D50A0A30F4005808F00079
:1008A600BE207808F0003030F00755088400700844
:1008B6008000D50A5F085E07F0007008DE00560863
:1008C6007002F1007108D8008030003AF0008030E4
:1008D6007106700203187B2C8030003AF0008030DD
:1008E6005806700203187A2CD803D5036F2C922C65
:1008F60080305806F0008030003A70020318922CBF
:1009060080305806F0008030003A70020318922CAE
:10091600D80A5508840030308000D50A832C550843
:0809260084008001F0010800CB
:10092E00831203137408003A031DB22C7508003AA3
:10093E00031DB22C7608003A031DB22C7708003A3C
:10094E00031DB22CFF30F000FF30F1007F30F200BB
:10095E00FF30F3004D2D8312031377080319412D39
:10096E0073080319442D720876068039FA00F217BF
:10097E00F617A0017208F8007108FC007008FD005F
:10098E007408FD027508031C750FFC027608031C23
:10099E00760FF802F801FC01FD01031CDD2C03109B
:1009AE00F20CF10CF00CF80C0130A0007708F302F9
:1009BE00031CE72C7E302007F3070318472DEC2C81
:1009CE007E302007F307031C4A2D1830FA07FD0D61
:1009DE00FC0DF80DF00DF10DF20DA00D7408F002E6
:1009EE007508031C750FF1027608031C760FF202D0
:1009FE00760DA004201C052D7D14102D7408F00713
:100A0E0075080318750FF10776080318760AF207B2
:100A1E007D10FA031F307A05031DEE2C7B1B7D1C07
:100A2E00372D0310F00DF10DF20DA00D7408F0022C
:100A3E007508031C750FF1027608031C760FF2027F
:100A4E00760D20040139FD070318FC0A0319F80A74
:100A5E00031D372DF80CFC0CFD0CF30A0319472D62
:100A6E00FA1FF8137808F2007C08F1007D08F000F8
:100A7E0000304C2D0130B3204C2D02306A204C2D0D
:0E0A8E00043071204C2D08305A200000080062
:100A9C00831203137008F8007108F000F101F201E1
:100AAC00F301FB01FC019630F300FA017008F10030
:0C0ABC007808F000F801F2017D2008002D
:100AC800FF3083120313BF00FF30C000FF30C100A6
:100AD800FF309F01C0309F043B09F0007008831667
:0C0AE8009F051F179F1783121F140800A2
:100AF4008316031386100610061186110612861239
:100B040083128610061086120612861106110A2018
:100B14000A200A20861506158614172086100A2036
:100B24008614172086100A208614172086100A209F
:100B340006118614172086100A20861417208610A2
:100B4400861186168614172086100A20861206152A
:100B540086141720861006118614172086100A2082
:100B640086141720861006158614172086100A206E
:100B74000611861417208610861606168615061585
:0C0B84008614172086100A203E1408007A
:100B9000831203139F01C0309F043B09F0007008CB
:100BA00083169F051F179F1783125108F000F00D41
:100BB0007010F00D7010F00D701070089F041F146D
:100BC000B6201F151F1DE62D0000E22D1F101E0868
:100BD000F100F00183161E08F0040030F104080053
:100BE000AC208A110A128000840ABC0A0319BD0ACB
:080BF000F003031DF02D0800C5
:100BF8006A2664258316860105147A250C30E400DC
:100C08001A200130E4001A20D101C8254E250030F1
:100C1800F4000030F5002030F6008130F7000F2195
:100C28000030F400C030F5007F30F6008830F7005F
:100C380097247008D1007108D2007208D300730895
:100C4800D4004230D5000430D60023220130D10030
:100C58000330D2002130D300E321C030E4001A2051
:100C68000230D1000830D2004230D300E3210230F4
:100C7800FB000430FC00BA30FD00FD0B412EFC0BDC
:0C0C8800412EFB0B412E0000082E492ECF
:100CD400213084001B3083120313F0004F30BC001A
:080CE4000630BD00F0250800F8
:100C9E0041346E3461346C346F34673420345634DE
:100CAE006F346C3474346134673465343A340034E0
:040CBE00303400349A
:080CC2004E3461344E3400345D
:080CCA0049344E344634003475
:020CD2000F34DD
:02400E004A2F37
:00000001FF
