:02000000A02E30
:06000600000000000800EC
:0E000C00213083120313FD00FD0B0A280800AB
:10001A000F3083120313FC004730FD00FD0B132839
:0A002A00FC0B132800000000080082
:0E003400F201F101F001F801F30100300800C3
:10004200FB14FB1F2B28FF30F300F200F100F0003D
:08005200FA0DF20CFF3008006A
:10005A0083160313AA1B34288312861236288312A6
:10006A00861683162A1B3C28831206123E28831200
:10007A0006168316AA1A4428831286114628831262
:10008A00861583162A1A4C28831206114E288312C3
:10009A0006155618522806145328061086140320EB
:1000AA0086108316AA195C28831286125E28831288
:1000BA00861683162A196428831206126628831262
:1000CA0006168316AA186C28831286116E288312C4
:1000DA00861583162A187428831206117628831225
:1000EA00061556187A2806147B280610861403204B
:0E00FA008610561C82280D2083280620080040
:100108007B15FB1F8E280130F300F201F101F0018D
:08011800FA0DF20CFF300800A3
:08012000FA1FF2130030080081
:1001280083120313561083162808AA002D2056148C
:020138000800BD
:10013A00831603132808F2007208F100F20A29084C
:10014A00F000A90A700884000008F0007108840011
:10015A00700880007108840000080319B528A128D6
:06016A002808F000080067
:1001700083120313FD01F80170080319003474069B
:10018000FA00FA1BFD09FB01F41FC828F409F40A60
:10019000F01FCC28F009F00A70087404FA00FA1B6A
:1001A000F0287408F802F00D700DF80D7408F807C7
:1001B000F00D0630FC00700DF80D74087018F80290
:1001C000701CF807F00DFC0BDB28701CF8077B187F
:1001D000FE28FD1F0034F009F00AF809F80A00347F
:1001E000F41FFB28F01BF8287008F800F001E9283C
:1001F000F001F00A0034F009FB0AD128F80A74086B
:100200007802031DE928F801F00AF01FE928FF34FD
:020210000800E4
:100212000E3083120313FD00FD0B0D2900000800B0
:0E0222008312031352088A005108820008005C
:1002300083120313FB017308031D770803196F2949
:1002400072087606FA007708F3077E30031C2C2923
:10025000F302031872292F29F302031C752972086F
:10026000F8007108FC007008FD00F817F61703107D
:10027000F201F101F0011830A0007D1C4929740839
:10028000F00775080318750FF10776080318760F45
:10029000F207F20CF10CF00CF80CFC0CFD0C031046
:1002A000A00B3D29F21B5929F80DF00DF10DF20DAF
:1002B000F3037B1B701C6B29F81F6B29F00A0319D1
:1002C000F10A0319F20A031D6B29F20CF10CF00C70
:1002D000F30A03197229FA1FF2130030772901304B
:1002E0001A20772902302120772904308420000049
:0202F000080004
:1002F20083120313FA017308031D7A147708031D8E
:10030200FA147A080319C529033A031990297A18AD
:100312008D29F61FC329C129F21FC129C3297208D9
:100322008039FA00F21376088039F6137A06031937
:100332009E297A080319C129C32977087302031970
:10034200A529031CB929BD29760872020319AC2913
:10035200031CB929BD29750871020319B329031CAD
:10036200B929BD29740870020319C5290318BD29CA
:10037200FA080319C329C129FA080319C129C32993
:1003820003140800031008000314031508000800F2
:06039200FB15FF3008001E
:10039800A0017208031DE1297108F2007008F1003C
:1003A800F001A0157208031DE1297108F200F1019E
:1003B800A011201672080319EF292008F302031D63
:1003C800031CF3290310F21BF729F00DF10DF20DB0
:1003D800F30BE729F3290130FC001A20FA2902302F
:0E03E800FC008420FA290430FC00902008005C
:1003F6000D2A803083120313E700202AC030E7005D
:10040600202A9430E700202AD430E700202A8030C2
:10041600E700202A831203136708013A0319FC290F
:100426006708023A0319012A6708033A0319042ADE
:100436006708043A0319072A0A2A6803F0006708BE
:10044600F0077008E700561470088316AA002D20DE
:0E045600561069088316AA002D2056140800BF
:1004640083120313E801680867078400000803196E
:10047400442A68086707840000088316A8009420AB
:06048400E80A352A080019
:10048A00831203139F01C0309F042109F0007008F2
:10049A0083169F051F179F1783126708F000F00D38
:1004AA007010F00D7010F00D701070089F041F147A
:1004BA0009211F151F1D632A00005F2A1F101E082D
:1004CA00F100F00183161E08F0040030F104080060
:1004DA00831203137408003A031D882A7508003A28
:1004EA00031D882A7608003A031D882A7708003AED
:1004FA00031D882AFF30F000FF30F1007F30F20040
:10050A00FF30F300232B8312031377080319172BE9
:10051A00730803191A2B720876068039FA00F21743
:10052A00F617A0017208F8007108FC007008FD00B7
:10053A007408FD027508031C750FFC027608031C7B
:10054A00760FF802F801FC01FD01031CB32A03101F
:10055A00F20CF10CF00CF80C0130A0007708F30251
:10056A00031CBD2A7E302007F30703181D2BC22A5D
:10057A007E302007F307031C202B1830FA07FD0DE5
:10058A00FC0DF80DF00DF10DF20DA00D7408F0023E
:10059A007508031C750FF1027608031C760FF20228
:1005AA00760DA004201CDB2A7D14E62A7408F007C5
:1005BA0075080318750FF10776080318760AF2070B
:1005CA007D10FA031F307A05031DC42A7B1B7D1C8C
:1005DA000D2B0310F00DF10DF20DA00D7408F002B1
:1005EA007508031C750FF1027608031C760FF202D8
:1005FA00760D20040139FD070318FC0A0319F80ACD
:10060A00031D0D2BF80CFC0CFD0CF30A03191D2B12
:10061A00FA1FF8137808F2007C08F1007D08F00050
:10062A000030222B0130C921222B02301A20222B22
:0E063A0004302120222B08308420000008000C
:10064800831203137008F8007108F000F101F20139
:10065800F301FB01FC019630F300FA017008F10088
:0C0668007808F000F801F201CC21080035
:10067400FF3083120313D300FF30D400FF30D500C2
:10068400FF309F01C0309F042109F00070088316D9
:0C0694009F051F179F1783121F140800FA
:1006A00011218A110A128000840AD10A0319D20A80
:0806B000F003031D502B0800AC
:1006B8008316031386100610061186110612861279
:1006C80083128610061086120612861106110D2056
:1006D8000D200D20861506158614032086100D2082
:1006E8008614032086100D208614032086100D2002
:1006F80006118614032086100D2086140320861008
:10070800861186168614032086100D20861206157B
:1007180086140320861006118614032086100D20E7
:1007280086140320861006158614032086100D20D3
:1007380006118614032086108616061686150615D9
:0C0748008614032086100D2056140800B3
:1007540083120313EF018316A401A501A601A701C7
:10076400831267088316A000831268088316A10009
:10077400831269088316A20083126A088316A300F1
:100784002308FF3A031DD02B2208FF3A031DD02B68
:100794002108FF3A031DD02B2008FF3A031DDC2B50
:1007A40083126B088316A8002830A9009D2003300B
:1007B400F0005D2E01308312ED008316A21FF12B91
:1007C40080302206F0007008A2008312ED0A83161E
:1007D400A40A83126B0884002D308000EB0A0030D9
:1007E400F00083162306031D012C70082206031D46
:1007F400012C70082106031D012C2008003A031D5A
:100804000C2C83126B088316A8002630A9009D20A7
:10081400F0015D2E2308FF3A031D1A2C2208003A2A
:10082400031D1A2C2108003A031D1A2C2008003A33
:10083400031D272C83126B088316A8002230A900FD
:100844009D2083126D08F0005D2E0030F40000300E
:10085400F5000030F6007F30F70083162008F00022
:100864002108F1002208F2002308F3007921013065
:1008740003180030F000700803195D2C831620085B
:10088400F0002108F1002208F2002308F3000030F0
:10089400F4000030F5002030F6008230F700182113
:1008A40070088316A0007108A1007208A2007308E2
:1008B400A300A703272C83160030F4000030F500B2
:1008C4002030F6008230F7002008F0002108F10003
:1008D4002208F2002308F30079210130031C0030C0
:1008E400F00070080319932C83162008F0002108E7
:1008F400F1002208F2002308F300CD30F400CC30DC
:10090400F5004C30F6007B30F70018217008831690
:10091400A0007108A1007208A2007308A300A70A2E
:100924005D2C8316FF302005F800FF302105F90007
:100934007F302205FA0000302305FB007808F4001C
:100944007908F5007A08F6007B08F700F40DF50D38
:10095400F60DF70D741000302005F000003021056D
:10096400F10000302205F200FF302305F300700887
:10097400A0007108A1007208A2007308A300740803
:100984002004F00075082104F10076082204F20026
:1009940077082304F3007008A0007108A10072080E
:1009A400A2007308A3007F302302F00070088312B2
:1009B400EE0001308316A3007008F4002008F00054
:1009C4002108F1002208F2002308F3007408031937
:1009D400F22CF00DF10DF20DF30D7010FF3EE92C29
:1009E4007008A0007108A1007208A2007308A30097
:1009F4002308303EF00083126B08840070088000E6
:100A0400EB0A8316A40A80302706F0008030013AEE
:100A14007002031C162D8030063AF0008030270641
:100A24007002031C162D202D83126B0884002E30B7
:100A34008000EB0A0130EF008316A40A063083120B
:100A4400EE006E08003A03198B2D8316A3012008CB
:100A5400F0002108F1002208F2002308F300F00D51
:100A6400F10DF20DF30D7010F00DF10DF20DF30D0B
:100A740070102008F00721080318210FF10722083D
:100A84000318220FF20723080318230FF307700833
:100A9400A0007108A1007208A2007308A300200836
:100AA400F0002108F1002208F2002308F300F00D01
:100AB400F10DF20DF30D70107008A0007108A10083
:100AC4007208A2007308A3002308303EF0008312CA
:100AD4006B08840070088000EB0A8316A40A831252
:100AE4006F08003A031D882D8316A7032708003AD0
:100AF400031D882D0130A60083126B0884002E305C
:100B04008000EB0A0130EF008316A40A8312EE037F
:100B1400232D83162608013A031D912DA403FF30CB
:100B240083126B07840000082E3A031D9C2DEB03EF
:100B34008316A40383168030003AF0008030270621
:100B440070020318A72D0130A50080302706F0009D
:100B54008030003A70020318B12D0230A500270836
:100B64008312EE008030093AF000803083162706A5
:100B74007002031CBF2DA50AC12D0230A50725084C
:100B84002407F100F2010318F20A80307206F00023
:100B940080307002031DD12D83126C08710203187A
:100BA400DC2D83126B08840030308000EB0A83163E
:100BB400A40AC12D83162708003A0319222E831292
:100BC4006B08840065308000EB0A803083162706AA
:100BD400F0008030003A70020318FA2D83126B087B
:100BE40084002D308000EB0A83162708003CA70000
:100BF40027088312EE008030093AF0008030831613
:100C0400270670020318132E0A30F40083126E08AC
:100C1400F000B8203030F0076B08840070088000C2
:100C2400EB0A83120A30F4006E08F000B82078084A
:100C3400F0003030F0076B08840070088000EB0A85
:100C4400831625082407F0007008A40083126C089A
:100C54007002F1007108EE008030003AF00080303C
:100C6400710670020318422E8030003AF000803082
:100C74006E0670020318412EEE03EB03362E592E36
:100C840080306E06F0008030003A70020318592E4E
:100C940080306E06F0008030003A70020318592E3E
:100CA400EE0A6B08840030308000EB0A4A2E6B0891
:080CB40084008001F00108003A
:100CBC00702E803083120313E700832EC030E700C0
:100CCC00832E9430E700832ED430E700832E8030BF
:100CDC00E700832E831203136708013A03195F2E72
:100CEC006708023A0319642E6708033A0319672E42
:100CFC006708043A03196A2E6D2E6803F000670822
:100D0C00F0077008E70070088316AA002D20561013
:100D1C00EA016A0869078400000803199E2E6A0814
:100D2C006907840000088316A8009420EA0A8F2E15
:040D3C005614080041
:100D40006E2783120313D701D801D901DA01DB0121
:100D5000DC01DD01DE01DF01E001E101E201E3018F
:100D6000E401E501E60183168601051480309F0049
:100D70003A230230FB000430FC00BA30FD00FD0BCA
:100D8000BF2EFC0BBF2EFB0BBF2E00005C230230DE
:100D9000FB000430FC00BA30FD00FD0BCD2EFC0B37
:100DA000CD2EFB0BCD2E00000C308316AA002D207B
:100DB0000130E7000130E8002C30E9005E26023007
:100DC000E7000230E8003530E9005E260330FB0022
:100DD0000830FC007730FD00FD0BEC2EFC0BEC2EF8
:100DE000FB0BEC2E01308316AA002D20E7014522D3
:100DF00024230030F4000030F5002030F60081306C
:100E0000F70018210030F400C030F5007F30F60004
:100E10008830F7006D220030F4000030F5004830D3
:100E2000F6008530F70018217008E7007108E80027
:100E30007208E9007308EA005730EB000430EC0058
:100E4000AA23013083120313E7000130E800493080
:100E5000E9005E265730E70032220130E7000C300F
:100E6000E800DF30E900FB214630E7003222F62EB1
:020E7000382F19
:100EDC0021308400303083120313F0003E30D100F7
:080EEC000730D200502308007A
:020E7C000F3431
:080E7E0049344E3446340034BF
:040E860030340034D0
:080E8A004E3461344E34003493
:100E92004C346534613472346E3469346E34673480
:020EA20000341A
:100EA4004D346934633472346F3463346F346E3464
:100EB400743472346F346C346C3465347234733417
:020EC4000034F8
:060EC60020344334003427
:100ECC00543465346D34703420343D342034003463
:02400E004A2F37
:00000001FF
