:02000000762860
:1000060083120313FB01FA01F9018030F800F10CA9
:10001600F00C031C17287408F90775080318750FE8
:10002600FA070318FB0A0310F01F1F287408FA07C3
:1000360075080318750FFB07FB0CFA0CF90CF80C86
:10004600031C0A287B08F3007A08F2007908F100FD
:060056007808F00008002C
:0C005C008312031395011712971208007D
:10006800831603130711831212150C309704080026
:10007800831603131208013EF000F1010318F10A78
:1000880083122408F400F50103200630F2007008FA
:10009800F4007108F500720803195728F50CF40CE0
:1000A800F513FF3E50280430F1007408F000710881
:1000B80003196228F00D7010FF3E5C28303070057F
:1000C800F3007408F0007508F100F10CF00CF1135E
:1000D800F10CF00CF113700895000F3097057308B8
:0400E8009704080071
:1000EC0083160313860183128601831687018312FC
:1000FC008701FF3083168800831288011214921036
:10010C00F930831692002E20A001A1013420200882
:10011C00A4003C20081CB1280230FB000430FC0079
:10012C00BA30FD00FD0B9828FC0B9828FB0B982887
:10013C0000008030F000803021067002031DA828DA
:10014C002008F03C031CAE280A30A0070318A10AB3
:10015C002008A4003C20081ED2280230FB000430EA
:10016C00FC00BA30FD00FD0BB928FC0BB928FB0BC9
:10017C00B928000080302106F00080307002031D89
:10018C00C9280A302002031CCF280A30A002031C05
:10019C00A1032008A4003C20061486109028D52822
:02400E004A2F37
:00000001FF
