:020000004A298B
:0E000600213083120313FD00FD0B07280800B4
:06001400000000000800DE
:10001A000F3083120313FC004730FD00FD0B132839
:0A002A00FC0B132800000000080082
:1000340083120313BD1B20288713212887173D1B18
:100044002528071326280717BD1A2A2887122B28C4
:1000540087163D1A2F28071230280716351834281A
:1000640006143528061086140A208610BD193C286B
:1000740087133D2887173D1941280713422807177E
:10008400BD1846288712472887163D184B280712A3
:100094004C280716351850280614512806108614C3
:1000A4000A208610351C58280D20592803200800E2
:1000B4008312031335103C08BD001A2035140800C0
:0E00C4008312031337088A00360882000800F2
:1000D20083120313B9013908380784000008031991
:1000E2007A283908380784000008BC005A20B90A67
:0400F2006C2808006E
:1000F6008D28803083120313B800A028C030B800C2
:10010600A0289430B800A028D430B800A0288030A9
:10011600B800A028831203133808013A03197C2873
:100126003808023A031981283808033A0319842843
:100136003808043A031987288A283903F000380852
:10014600F0077008B80035147008BD001A20351085
:0A0156003A08BD001A203514080015
:10016000C228803083120313B800D528C030B800ED
:10017000D5289430B800D528D430B800D5288030A0
:10018000B800D528831203133808013A0319B1289F
:100190003808023A0319B6283808033A0319B9286F
:1001A0003808043A0319BC28BF283903F00038087E
:1001B000F0077008B8007008BD001A203510BB01A8
:1001C0003B083A07840000080319EE283B083A0769
:1001D00084000008BC005A20BB0AE028351408003F
:1001E000831603138610061007128712071387134E
:1001F00083128610061087130713871207120D202B
:100200000D200D208716071686140A2086100D2053
:1002100086140A2086100D2086140A2086100D20D0
:10022000071286140A2086100D2086140A208610D4
:100230008712871786140A2086100D208713071649
:1002400086140A208610071286140A2086100D20B4
:1002500086140A208610071686140A2086100D20A0
:10026000071286140A2086108717071787160716A5
:0C02700086140A2086100D2035140800AA
:10027C0062208A110A128000840AB60A0319B70A8E
:08028C00F003031D3E290800E8
:10029400573083120313A0006530A1006C30A20014
:1002A4006330A3006F30A4006D30A5006530A60054
:1002B400A7015430A8006130A9006830AA006D304D
:1002C400AB006930AC006430AD002030AE00483083
:1002D400AF006130B0007330B1006130B2006E30F5
:1002E400B300B401831686018701F0200130BD00FC
:1002F4001A200C30BD001A208030BD001A200230B4
:10030400B8000330B9005430BA007B200230FB003F
:100314000430FC00BA30FD00FD0B8E29FC0B8E2945
:10032400FB0B8E2900000130BD001A202030B800DC
:1003340069200B30FB002630FC005D30FD00FD0B16
:10034400A129FC0BA129FB0BA1290000000002300C
:10035400B8000330B9002830BA00B0200B30FB00DD
:100364002630FC005D30FD00FD0BB629FC0BB629E0
:0C037400FB0BB629000000007E29BF2909
:02400E004A2F37
:00000001FF
