:02000000BE2818
:1000060083120313FB01FA01F9018030F800F10CA9
:10001600F00C031C17287408F90775080318750FE8
:10002600FA070318FB0A0310F01F1F287408FA07C3
:1000360075080318750FFB07FB0CFA0CF90CF80C86
:10004600031C0A287B08F3007A08F2007908F100FD
:060056007808F00008002C
:0C005C008312031395011712971208007D
:10006800831603130711831212150C309704080026
:0C007800831203139B011D129D1208004F
:10008400831603138710831212150C309D04080085
:10009400831603131208013EF000F1010318F10A5C
:1000A40083122208F400F50103200630F2007008E0
:1000B400F4007108F500720803196528F50CF40CB6
:1000C400F513FF3E5E280430F1007408F000710857
:1000D40003197028F00D7010FF3E6A283030700547
:1000E400F3007408F0007508F100F10CF00CF11342
:1000F400F10CF00CF113700895000F30970573089C
:040104009704080054
:10010800831603131208013EF000F1010318F10AE7
:1001180083122208F400F50103200630F20070086B
:10012800F4007108F500720803199F28F50CF40C07
:10013800F513FF3E98280430F1007408F0007108A8
:100148000319AA28F00D7010FF3EA428303070055E
:10015800F3007408F0007508F100F10CF00CF113CD
:10016800F10CF00CF11370089B000F309D0573081B
:040178009D040800DA
:10017C0083160313860187018312860187011214EB
:10018C0092106330831692002E2034201214921099
:10019C006330831692003C2042200614861006150C
:1001AC008611FF30A2004A20FF30A2008420333099
:1001BC00FB00BB30FC00DF30FD00FD0BE328FC0B2B
:1001CC00E328FB0BE3280000000006101530FB00B1
:1001DC004B30FC00BE30FD00FD0BF228FC0BF2286E
:1001EC00FB0BF228000006148610061586117F30D2
:1001FC00A2004A207F30A20084203330FB00BB30A9
:10020C00FC00DF30FD00FD0B0929FC0B0929FB0B61
:10021C0009290000000006101530FB004B30FC00D3
:10022C00BE30FD00FD0B1829FC0B1829FB0B1829FF
:10023C00000006148610061586117F30A2004A2095
:10024C007F30A20084203330FB00BB30FC00DF3059
:10025C00FD00FD0B2F29FC0B2F29FB0B2F29000078
:06026C00000086013829A4
:02400E004A2F37
:00000001FF
