:020000000328D3
:1000060083120313A201A3018316870183128701BA
:10001600FF30831688008312081C23280330FB0058
:100026000830FC007730FD00FD0B1728FC0B172865
:10003600FB0B1728081C23280130A2000030A30060
:10004600081E35280330FB000830FC007730FD0021
:10005600FD0B2B28FC0B2B28FB0B2B28081E352809
:10006600A201A301881F49280330FB000830FC00C9
:100076007730FD00FD0B3D28FC0B3D28FB0B3D2892
:10008600881F49280230A2000030A3000030230652
:10009600031D4F2801302206031D5428071487101C
:1000A600612800302306031D5A2802302206031D4C
:1000B6005F28071087146128071087100E2862280A
:02400E004A2F37
:00000001FF
