:020000001628C0
:0E000600831203132D088A002C0882000800C4
:1000140003208A110A128000840AAC0A0319AD0A6B
:08002400F003031D0A28080087
:10002C00483083120313A000A101C730A200A30122
:10003C00C030A400A501C030A600A7018630A800DE
:10004C00A901C730AA00AB0183168601880183126F
:10005C00860188010814200886001A30FC00F8304C
:10006C00FD00FD0B3728FC0B372800000810881406
:10007C00280886001A30FC00F830FD00FD0B4428DF
:10008C00FC0B44280000881008152A0886001A303A
:10009C00FC00F830FD00FD0B5128FC0B5128000032
:1000AC0008118815220886001A30FC00F830FD0073
:1000BC00FD0B5E28FC0B5E280000881188162408B6
:1000CC0086001A30FC00F830FD00FD0B6B28FC0B91
:1000DC006B28000088128817260886001A30FC004E
:1000EC00F830FD00FD0B7828FC0B782800008813F5
:0400FC0030287F2801
:02400E004A2F37
:00000001FF
